S01000004C45445F424C494E4B2E6D6F74CD
S1070000E903FFFF0E
S11300048D03090309030903090309030903090304
S11300140903090309030903090309030903090378
S11300240903090309030903090309030903090368
S1130034090309036B0209030903090309030903F7
S11300440903090309030903090309030903090348
S11300540903090309030903090309030903090338
S11300640903090309030903090309030903090328
S10F007409030903090309030903090334
S10700C0FFFFE084D6
S10D00C4000000000000000000002E
S11300D8C9F0A0FFADF0BDF2FAF2F19BC9F0A1FF9F
S11300E8ADF0BDF4FAF48B9DF26AF280ADF08DF2B6
S11300F89BC9F0A4FFADF0BDF4FAF48B9DF25AF25B
S1130108EFADF08DF29BC9F0F300ADF0BDF2FAF259
S113011851109BC9F0A1FFADF0BDF4FAF48B9DF228
S11301285AF2FEADF08DF29BD72002C9F0A8FFADBC
S1130138F0BDF2FAF28B9DF098011002D7C9F0F0E5
S113014800ADF0BDF4FAF48B9DF26AF280ADF08D47
S1130158F29BC9F090FFADF0BDF2FAF2F6BBC9F01C
S1130168E7FFADF0BDF4FAF48B9DF26AF204ADF04A
S11301788DF29BC9F0E3FFADF0BDF4FAF48B9DF268
S11301885AF2FBADF08DF29BC9F0EFFFADF0BDF470
S1130198FAF48B9DF26AF204ADF08DF29BC9F0EB90
S11301A8FFADF0BDF4FAF48B9DF26AF204ADF08D64
S11301B8F29BC9F090FFADF0BDF2FAF230DB05BB5B
S11301C8D7C9F2E3FFADF2BDF0FAF08B9DF45AF40F
S11301D8FBADF28DF49BC9F2E7FFADF2BDF0FAF086
S11301E88B9DF45AF4FBADF28DF49BC9F490FFC9CE
S11301F8F290FFADF2BDF0FAF0ABBDF28DF26C00F7
S11302089DF08DF36C809DF1ADF4BDF2FAF2ADF082
S1130218BBD7C9F2E7FFADF2BDF0FAF08B9DF46AE3
S1130228F404ADF28DF49BC9F2E3FFADF2BDF0FA2C
S1130238F08B9DF45AF4FBADF28DF49BC9F490FF56
S1130248C9F290FFADF2BDF0FAF0ABBDF28DF25CED
S1130258FF9DF08DF35C7F9DF1ADF4BDF2FAF2AD34
S1130268F0BBD761CFC1C3C5C761DFC1C3C561CF07
S1130278AF00F7BDF0A6F0ADF0BF00F7BDF0440441
S11302880061E3ECD60200C9F003FFC9F203FFAD35
S1130298F2BDF4FAF48B9DF25C029DF3CDF201D425
S11302A8F361F8ECB20200CDF2005AF2018DF2616A
S11302B8019DF2ADF0BDF4FAF48B9DF35AF3FD8D74
S11302C8F36BF29DF2ADF08DF29BF6BF00F761DFA0
S11302D8C4C2C061CFC6C4C2C061FCC9F003FFADCB
S11302E8F0BDF2FAF2F19BC9F03400ADF0BDF2FAB8
S11302F8F2E19BC9F023FFADF0BDF2FAF251FD9B88
S1130308D761CFC1C3C5C7C6C4C2C061FCC9F0E4C4
S1130318FFADF0BDF4FAF48B9DF26AF201ADF08DF5
S1130328F29BC9F0E0FFADF0BDF4FAF48B9DF25AEC
S1130338F2FEADF08DF29BC9F0ECFFADF0BDF4FA1E
S1130348F48B9DF26AF201ADF08DF29BC9F0E8FFDF
S1130358ADF0BDF4FAF48B9DF26AF201ADF08DF2C2
S11303689BC9F0E4FFADF0BDF4FAF48B9DF25AF2A8
S1130378FEADF08DF29BD7C9F0ABFFADF0BDF2FA3C
S1130388F251AC9BD761CFC1C3C5C7C6C4C2C06153
S1130398FCC9F07700ADF0BDF2FAF2F19BFC310133
S11303A800FCD80000FCE30200FC150300FC450136
S11303B800C9F07800ADF0BDF2FAF2F19BD7200243
S11303C8717BFAFC990300E6B800BDF01002D7FC73
S11303D8DF0300ECDB0300717AFAFCC90100D7E9FA
S11303E803CBF800FE410061CF3448043600F761BE
S11303F8DF3600F73002F727311E440000DD0EB166
S113040861CF11A9BBA5A5A7A761DFEFED61CF3621
S113041802F730000061DF3002F727311E44000084
S1130428DD0AB161CFBBA7A761DFEFF161CFFCC6DD
S1130438030000300000C1C1C1FCD70300EFFE0077
S10504480000AE
S90303E910
